{
  "_format": "hh-sol-artifact-1",
  "contractName": "CrowdFunding",
  "sourceName": "contracts/CrowdFunding.sol",
  "abi": [
    {
      "inputs": [
        {
          "internalType": "address",
          "name": "_owner",
          "type": "address"
        },
        {
          "internalType": "string",
          "name": "_title",
          "type": "string"
        },
        {
          "internalType": "string",
          "name": "_description",
          "type": "string"
        },
        {
          "internalType": "uint256",
          "name": "_target",
          "type": "uint256"
        },
        {
          "internalType": "uint256",
          "name": "_deadline",
          "type": "uint256"
        }
      ],
      "name": "createCampaign",
      "outputs": [
        {
          "internalType": "uint256",
          "name": "",
          "type": "uint256"
        }
      ],
      "stateMutability": "nonpayable",
      "type": "function"
    },
    {
      "inputs": [
        {
          "internalType": "uint256",
          "name": "_id",
          "type": "uint256"
        }
      ],
      "name": "donateToCampaign",
      "outputs": [],
      "stateMutability": "payable",
      "type": "function"
    },
    {
      "inputs": [],
      "name": "getAllCampaigns",
      "outputs": [
        {
          "components": [
            {
              "internalType": "address",
              "name": "owner",
              "type": "address"
            },
            {
              "internalType": "string",
              "name": "title",
              "type": "string"
            },
            {
              "internalType": "string",
              "name": "description",
              "type": "string"
            },
            {
              "internalType": "uint256",
              "name": "target",
              "type": "uint256"
            },
            {
              "internalType": "uint256",
              "name": "deadline",
              "type": "uint256"
            },
            {
              "internalType": "uint256",
              "name": "amountCollected",
              "type": "uint256"
            },
            {
              "internalType": "address[]",
              "name": "donators",
              "type": "address[]"
            },
            {
              "internalType": "uint256[]",
              "name": "donations",
              "type": "uint256[]"
            }
          ],
          "internalType": "struct CrowdFunding.Campaign[]",
          "name": "",
          "type": "tuple[]"
        }
      ],
      "stateMutability": "view",
      "type": "function"
    },
    {
      "inputs": [
        {
          "internalType": "uint256",
          "name": "_id",
          "type": "uint256"
        }
      ],
      "name": "getDonators",
      "outputs": [
        {
          "internalType": "address[]",
          "name": "",
          "type": "address[]"
        },
        {
          "internalType": "uint256[]",
          "name": "",
          "type": "uint256[]"
        }
      ],
      "stateMutability": "view",
      "type": "function"
    }
  ],
  "bytecode": "0x60806040526000805534801561001457600080fd5b506114e8806100246000396000f3fe60806040526004361061003f5760003560e01c8063075843c3146100445780630fa91fa91461008157806342a4fda8146100bf57806386cdf604146100db575b600080fd5b34801561005057600080fd5b5061006b60048036038101906100669190610a1a565b610106565b6040516100789190610adc565b60405180910390f35b34801561008d57600080fd5b506100a860048036038101906100a39190610af7565b61021a565b6040516100b6929190610ca0565b60405180910390f35b6100d960048036038101906100d49190610af7565b61032c565b005b3480156100e757600080fd5b506100f061048d565b6040516100fd9190610fbb565b60405180910390f35b6000806001600080548152602001908152602001600020905042816004015410610165576040517f08c379a000000000000000000000000000000000000000000000000000000000815260040161015c90611060565b60405180910390fd5b868160000160006101000a81548173ffffffffffffffffffffffffffffffffffffffff021916908373ffffffffffffffffffffffffffffffffffffffff160217905550858160010190816101b9919061128c565b50848160020190816101cb919061128c565b50838160030181905550828160040181905550600081600501819055506000808154809291906101fa9061138d565b9190505550600160005461020e91906113d5565b91505095945050505050565b6060806001600084815260200190815260200160002060060160016000858152602001908152602001600020600701818054806020026020016040519081016040528092919081815260200182805480156102ca57602002820191906000526020600020905b8160009054906101000a900473ffffffffffffffffffffffffffffffffffffffff1673ffffffffffffffffffffffffffffffffffffffff1681526020019060010190808311610280575b505050505091508080548060200260200160405190810160405280929190818152602001828054801561031c57602002820191906000526020600020905b815481526020019060010190808311610308575b5050505050905091509150915091565b6000349050600060016000848152602001908152602001600020905080600601339080600181540180825580915050600190039060005260206000200160009091909190916101000a81548173ffffffffffffffffffffffffffffffffffffffff021916908373ffffffffffffffffffffffffffffffffffffffff1602179055508060070182908060018154018082558091505060019003906000526020600020016000909190919091505560008160000160009054906101000a900473ffffffffffffffffffffffffffffffffffffffff1673ffffffffffffffffffffffffffffffffffffffff16836040516104229061143a565b60006040518083038185875af1925050503d806000811461045f576040519150601f19603f3d011682016040523d82523d6000602084013e610464565b606091505b5050905080156104875782826005015461047e919061144f565b82600501819055505b50505050565b60606000805467ffffffffffffffff8111156104ac576104ab6108b9565b5b6040519080825280602002602001820160405280156104e557816020015b6104d26107d1565b8152602001906001900390816104ca5790505b50905060005b6000548110156107c957600060016000838152602001908152602001600020905080604051806101000160405290816000820160009054906101000a900473ffffffffffffffffffffffffffffffffffffffff1673ffffffffffffffffffffffffffffffffffffffff1673ffffffffffffffffffffffffffffffffffffffff16815260200160018201805461057f906110af565b80601f01602080910402602001604051908101604052809291908181526020018280546105ab906110af565b80156105f85780601f106105cd576101008083540402835291602001916105f8565b820191906000526020600020905b8154815290600101906020018083116105db57829003601f168201915b50505050508152602001600282018054610611906110af565b80601f016020809104026020016040519081016040528092919081815260200182805461063d906110af565b801561068a5780601f1061065f5761010080835404028352916020019161068a565b820191906000526020600020905b81548152906001019060200180831161066d57829003601f168201915b505050505081526020016003820154815260200160048201548152602001600582015481526020016006820180548060200260200160405190810160405280929190818152602001828054801561073657602002820191906000526020600020905b8160009054906101000a900473ffffffffffffffffffffffffffffffffffffffff1673ffffffffffffffffffffffffffffffffffffffff16815260200190600101908083116106ec575b505050505081526020016007820180548060200260200160405190810160405280929190818152602001828054801561078e57602002820191906000526020600020905b81548152602001906001019080831161077a575b5050505050815250508383815181106107aa576107a9611483565b5b60200260200101819052505080806107c19061138d565b9150506104eb565b508091505090565b604051806101000160405280600073ffffffffffffffffffffffffffffffffffffffff168152602001606081526020016060815260200160008152602001600081526020016000815260200160608152602001606081525090565b6000604051905090565b600080fd5b600080fd5b600073ffffffffffffffffffffffffffffffffffffffff82169050919050565b600061086b82610840565b9050919050565b61087b81610860565b811461088657600080fd5b50565b60008135905061089881610872565b92915050565b600080fd5b600080fd5b6000601f19601f8301169050919050565b7f4e487b7100000000000000000000000000000000000000000000000000000000600052604160045260246000fd5b6108f1826108a8565b810181811067ffffffffffffffff821117156109105761090f6108b9565b5b80604052505050565b600061092361082c565b905061092f82826108e8565b919050565b600067ffffffffffffffff82111561094f5761094e6108b9565b5b610958826108a8565b9050602081019050919050565b82818337600083830152505050565b600061098761098284610934565b610919565b9050828152602081018484840111156109a3576109a26108a3565b5b6109ae848285610965565b509392505050565b600082601f8301126109cb576109ca61089e565b5b81356109db848260208601610974565b91505092915050565b6000819050919050565b6109f7816109e4565b8114610a0257600080fd5b50565b600081359050610a14816109ee565b92915050565b600080600080600060a08688031215610a3657610a35610836565b5b6000610a4488828901610889565b955050602086013567ffffffffffffffff811115610a6557610a6461083b565b5b610a71888289016109b6565b945050604086013567ffffffffffffffff811115610a9257610a9161083b565b5b610a9e888289016109b6565b9350506060610aaf88828901610a05565b9250506080610ac088828901610a05565b9150509295509295909350565b610ad6816109e4565b82525050565b6000602082019050610af16000830184610acd565b92915050565b600060208284031215610b0d57610b0c610836565b5b6000610b1b84828501610a05565b91505092915050565b600081519050919050565b600082825260208201905092915050565b6000819050602082019050919050565b610b5981610860565b82525050565b6000610b6b8383610b50565b60208301905092915050565b6000602082019050919050565b6000610b8f82610b24565b610b998185610b2f565b9350610ba483610b40565b8060005b83811015610bd5578151610bbc8882610b5f565b9750610bc783610b77565b925050600181019050610ba8565b5085935050505092915050565b600081519050919050565b600082825260208201905092915050565b6000819050602082019050919050565b610c17816109e4565b82525050565b6000610c298383610c0e565b60208301905092915050565b6000602082019050919050565b6000610c4d82610be2565b610c578185610bed565b9350610c6283610bfe565b8060005b83811015610c93578151610c7a8882610c1d565b9750610c8583610c35565b925050600181019050610c66565b5085935050505092915050565b60006040820190508181036000830152610cba8185610b84565b90508181036020830152610cce8184610c42565b90509392505050565b600081519050919050565b600082825260208201905092915050565b6000819050602082019050919050565b600081519050919050565b600082825260208201905092915050565b60005b83811015610d3d578082015181840152602081019050610d22565b60008484015250505050565b6000610d5482610d03565b610d5e8185610d0e565b9350610d6e818560208601610d1f565b610d77816108a8565b840191505092915050565b600082825260208201905092915050565b6000610d9e82610b24565b610da88185610d82565b9350610db383610b40565b8060005b83811015610de4578151610dcb8882610b5f565b9750610dd683610b77565b925050600181019050610db7565b5085935050505092915050565b600082825260208201905092915050565b6000610e0d82610be2565b610e178185610df1565b9350610e2283610bfe565b8060005b83811015610e53578151610e3a8882610c1d565b9750610e4583610c35565b925050600181019050610e26565b5085935050505092915050565b600061010083016000830151610e796000860182610b50565b5060208301518482036020860152610e918282610d49565b91505060408301518482036040860152610eab8282610d49565b9150506060830151610ec06060860182610c0e565b506080830151610ed36080860182610c0e565b5060a0830151610ee660a0860182610c0e565b5060c083015184820360c0860152610efe8282610d93565b91505060e083015184820360e0860152610f188282610e02565b9150508091505092915050565b6000610f318383610e60565b905092915050565b6000602082019050919050565b6000610f5182610cd7565b610f5b8185610ce2565b935083602082028501610f6d85610cf3565b8060005b85811015610fa95784840389528151610f8a8582610f25565b9450610f9583610f39565b925060208a01995050600181019050610f71565b50829750879550505050505092915050565b60006020820190508181036000830152610fd58184610f46565b905092915050565b600082825260208201905092915050565b7f546865206465616c696e652073686f756c642062652061206461746520696e2060008201527f6675727475726500000000000000000000000000000000000000000000000000602082015250565b600061104a602783610fdd565b915061105582610fee565b604082019050919050565b600060208201905081810360008301526110798161103d565b9050919050565b7f4e487b7100000000000000000000000000000000000000000000000000000000600052602260045260246000fd5b600060028204905060018216806110c757607f821691505b6020821081036110da576110d9611080565b5b50919050565b60008190508160005260206000209050919050565b60006020601f8301049050919050565b600082821b905092915050565b6000600883026111427fffffffffffffffffffffffffffffffffffffffffffffffffffffffffffffffff82611105565b61114c8683611105565b95508019841693508086168417925050509392505050565b6000819050919050565b600061118961118461117f846109e4565b611164565b6109e4565b9050919050565b6000819050919050565b6111a38361116e565b6111b76111af82611190565b848454611112565b825550505050565b600090565b6111cc6111bf565b6111d781848461119a565b505050565b5b818110156111fb576111f06000826111c4565b6001810190506111dd565b5050565b601f82111561124057611211816110e0565b61121a846110f5565b81016020851015611229578190505b61123d611235856110f5565b8301826111dc565b50505b505050565b600082821c905092915050565b600061126360001984600802611245565b1980831691505092915050565b600061127c8383611252565b9150826002028217905092915050565b61129582610d03565b67ffffffffffffffff8111156112ae576112ad6108b9565b5b6112b882546110af565b6112c38282856111ff565b600060209050601f8311600181146112f657600084156112e4578287015190505b6112ee8582611270565b865550611356565b601f198416611304866110e0565b60005b8281101561132c57848901518255600182019150602085019450602081019050611307565b868310156113495784890151611345601f891682611252565b8355505b6001600288020188555050505b505050505050565b7f4e487b7100000000000000000000000000000000000000000000000000000000600052601160045260246000fd5b6000611398826109e4565b91507fffffffffffffffffffffffffffffffffffffffffffffffffffffffffffffffff82036113ca576113c961135e565b5b600182019050919050565b60006113e0826109e4565b91506113eb836109e4565b92508282039050818111156114035761140261135e565b5b92915050565b600081905092915050565b50565b6000611424600083611409565b915061142f82611414565b600082019050919050565b600061144582611417565b9150819050919050565b600061145a826109e4565b9150611465836109e4565b925082820190508082111561147d5761147c61135e565b5b92915050565b7f4e487b7100000000000000000000000000000000000000000000000000000000600052603260045260246000fdfea26469706673582212200f71254613d1e24338f236496678265405cb772a65979727302dfe8da16902d964736f6c63430008120033",
  "linkReferences": {},
  "deployedLinkReferences": {}
}